:100000000C94B4360C94D1360C94D1360C94D13671
:100010000C94D1360C94D1360C94D1360C94D13644
:100020000C94D1360C94D1360C94D1360C94D13634
:100030000C94D1360C94D1360C94D1360C94D13624
:100040000C94DA370C94D1360C94D1360C94D1360A
:100050000C94D1360C94D1360C94D1360C94D13604
:100060000C94D1360C94D13656676D20AB6C0000E1
:10007000610100000000000000000000796C000039
:1000800088692C0000000000000000003C00000017
:100090000900100000000000999E36007C0000005E
:1000A0000000000000000000000000000000000050
:1000B0000000000000000000000000000000000040
:1000C0000000000000000000000000000000000030
:1000D0000000000000000000000000000000000020
:1000E0000000000000000000000000000000000010
:1000F0000000000000000000000000000000000000
:1001000000000000000000000000000000000000EF
:10011000000000000000000054080054607F54708C
:100120007F54687F54787F54080154617F54717FF5
:1001300054697F54797F54080254627F54727F540B
:100140006A7F547A7F54080354637F54737F546BDF
:100150007F547B7F54080454647F54747F546C7FB5
:10016000547C7F54080554657F54757F546D7F54CB
:100170007D7F5418005419005419805438005439A4
:1001800000543A00543B00543C00543D0054282D88
:1001900054300054403354801B54A00454C00054C5
:1001A000E0E554501154905F54B00754D00054F01F
:1001B000E654487E54881F54A80754C80054E8D316
:1001C00054587454981F54B80854D80054F8E6543E
:1001D00020F4546022547000546829547810542834
:1001E00051543000546022547007546829547817D1
:1001F00054087854292D54310054413354811B54F0
:10020000A10454C10054E1E554511154915F54B11B
:100210000754D10054F1E654497E54891F54A9076C
:1002200054C90054E9D354597454991F54B908540B
:10023000D90054F9E65421F45461225471005469F0
:1002400029547910542946543100546122547107BD
:10025000546929547917540879542A2D543200547A
:10026000427754821F54A20F54C20054E23F5452AA
:100270003354921F54B20054D20054F209544A31FC
:10028000548A1F54AA0F54CA0354EA1B545A725476
:100290009A1F54BA0F54DA0054FA1B5422DE5462E7
:1002A00023547200546A04547A045422DE542A41BE
:1002B00054320054622354720D546A11547A11540A
:1002C000087A542B2D54330054437754831F54A37E
:1002D0000F54C30054E33F54533354931F54B3009B
:1002E00054D30054F309544B31548B1F54AB0F5467
:1002F000CB0354EB1B545B72549B1F54BB0F54DB5A
:100300000054FB1B5423DE546323547300546B04CA
:10031000547B0454239E542B3A5433005463235487
:10032000730D546B11547B1154087B542C2D543491
:100330000054447754841F54A40F54C40054E43F21
:1003400054543354941F54B40054D40054F40954F6
:100350004C31548C1F54AC0F54CC0354EC1B545CE4
:1003600072549C1F54BC0F54DC0054FC1B5424DEFC
:10037000546423547400546C04547C0454245E5418
:100380002C3654340054642354740D546C11547C32
:100390001154087C542D2D54350054450054855F6C
:1003A00054A50F54C50054E52D54550254951F54BF
:1003B000B50A54D50154F51C544D01548D1954AD52
:1003C0000A54CD0154ED1C545D02549D1F54BD0AC6
:1003D00054DD0154FD1C5425FD54651C5475045412
:1003E0006D04547D04542D2154350054651C5475FE
:1003F00021546D21547D2154087D542E2D543600F6
:10040000542F2D54370061112B5408005428515497
:10041000300054284654300054087854294654314A
:1004200000542A41543200542B3A543300542C3691
:10043000543400542D21543500542E2D543600547C
:100440002F2D543700618815540800542846543025
:100450000054284854300054087854294654310038
:10046000542A41543200542B3A543300542C3654FD
:100470003400542D21543500542E2D543600542F61
:100480002D54370061881554080054284854300012
:1004900054284A54300054087854080154294654CA
:1004A0003100542946543100540879542A415432B9
:1004B00000542B3A543300542C36543400542D211C
:1004C000543500542E2D543600542F2D54370061CE
:1004D000112B54080054284A5430005428465430F4
:1004E00000540878542946543100542A41543200AB
:1004F000542B3A543300542C36543400542D215488
:100500003500542E2D543600542F2D543700618859
:1005100015540800542846543000542848543000DC
:10052000540878542946543100542A415432005416
:100530002B3A543300542C36543400542D21543566
:1005400000542E2D543600542F2D54370061881539
:1005500054080054284854300054284A5430005459
:100560000878540801542946543100542944543120
:1005700000540879540802542A41543200542A4045
:1005800054320054087A540803542B3A543300541C
:100590002B3A54330054087B540804542C365434FA
:1005A00000542C3454340054087C540805542D2134
:1005B000543500542D1A54350054087D542E2D54B2
:1005C0003600542F2D5437006188155408005428E4
:1005D0004A54300054283A5430005408785429447E
:1005E000543100542A40543200542B3A54330054AE
:1005F0002C34543400542D1A543500542E2D5436B6
:1006000000542F2D54370061881554080054283A9F
:1006100054300054283D5430005408785429445430
:100620003100542A40543200542B3A543300542C95
:1006300034543400542D1A543500542E2D543600A1
:10064000542F2D54370061881554080054283D5408
:100650003000542840543000540878542944543110
:1006600000542A40543200542B3A543300542C3452
:10067000543400542D1A543500542E2D5436005441
:100680002F2D5437006188155408005428405430E9
:1006900000542841543000540878542944543100FF
:1006A000542A40543200542B3A543300542C3454BE
:1006B0003400542D1A543500542E2D543600542F26
:1006C0002D543700618815540800542841543000D7
:1006D0005428445430005408785429445431005468
:1006E0002A40543200542B3A543300542C3454349E
:1006F00000542D1A543500542E2D543600542F2DED
:10070000543700618815540800542844543000546C
:100710002846543000540878542944543100542A4F
:1007200040543200542B3A543300542C3454340087
:10073000542D1A543500542E2D543600542F2D5458
:100740003700618815540800542846543000542856
:1007500048543000540878542944543100542A40F5
:10076000543200542B3A543300542C345434005433
:100770002D1A543500542E2D543600542F2D543735
:100780000061881554080054284854300054284605
:10079000543000540878540801542944543100540A
:1007A0000802542A40543200542A3D54320054085E
:1007B0007A540803542B3A543300542B36543300E4
:1007C00054087B540804542C34543400542C3154B1
:1007D000340054087C540805542D1A543500542D07
:1007E0001D54350054087D542E2D543600542F2DA1
:1007F00054370061112B54080054284654300054DB
:100800002841543000540878542944543100542A63
:100810003D543200542B36543300542C31543400A0
:10082000542D1D543500542E2D543600542F2D5464
:10083000370061881554080054284154300054286A
:1008400044543000540878542944543100542A3D0B
:10085000543200542B36543300542C315434005449
:100860002D1D543500542E2D543600542F2D543741
:100870000061881554080054284454300054284618
:1008800054300054087854294454310054294154B8
:100890003100540879542A3D543200542B365433D5
:1008A00000542C31543400542D1D543500542E2D39
:1008B000543600542F2D54370061112B5408005426
:1008C00028465430005428365430005408785429AF
:1008D00041543100542A3D543200542B36543300D5
:1008E000542C31543400542D1D543500542E2D54A5
:1008F0003600542F2D5437006188155408005428B1
:100900003654300054283854300054087854294163
:10091000543100542A3D543200542B365433005481
:100920002C31543400542D1D543500542E2D543682
:1009300000542F2D5437006188155408005428386E
:1009400054300054283A5430005408785408015464
:10095000294154310054294654310054087954082F
:1009600002542A3D543200542A3A54320054087A30
:10097000540803542B36543300542B36543300544C
:10098000087B540804542C31543400542C30543413
:100990000054087C540805542D1D543500542D1660
:1009A00054350054087D542E2D543600542F2D54A8
:1009B000370061881554080054283A5430005428F0
:1009C0003D543000540878542946543100542A3A92
:1009D000543200542B36543300542C3054340054C9
:1009E0002D16543500542E2D543600542F2D5437C7
:1009F0000061881554080054283D54300054283AAA
:100A0000543000540878542946543100542A3A543A
:100A10003200542B36543300542C30543400542DAF
:100A200016543500542E2D543600542F2D543700B3
:100A300061881554080054283A543000542838541A
:100A40003000540878542946543100542A3A54321C
:100A500000542B36543300542C30543400542D168B
:100A6000543500542E2D543600542F2D5437006128
:100A7000881554080054283854300054283A54300B
:100A800000540878542946543100542A3A5432000C
:100A9000542B36543300542C30543400542D1654F7
:100AA0003500542E2D543600542F2D5437006188B4
:100AB0001554080054283A54300054283654300055
:100AC000540878542946543100542A3A5432005478
:100AD0002B36543300542C30543400542D165435D6
:100AE00000542E2D543600542F2D54370061881594
:100AF00054080054283654300054283854300054D8
:100B00000878542946543100542A3A543200542B60
:100B100036543300542C30543400542D16543500C0
:100B2000542E2D543600542F2D54370061881554FF
:100B3000080054283854300054283A5430005408DF
:100B400078542946543100542A3A543200542B36F2
:100B5000543300542C30543400542D165435005462
:100B60002E2D543600542F2D54370061881554080B
:100B70000054283A5430005428385430005408782F
:100B800054080154294654310054293D543100542D
:100B90000879540802542A3A543200542A385432FC
:100BA0000054087A540803542B36543300542B3124
:100BB00054330054087B540804542C3054340054EB
:100BC0002C2D54340054087C540805542D165435EB
:100BD00000542D1854350054087D542E2D543600E1
:100BE000542F2D54370061112B54080054283854C9
:100BF000300054283D54300054087854293D543175
:100C000000542A38543200542B31543300542C2DC4
:100C1000543400542D18543500542E2D543600549D
:100C20002F2D54370061881554080054283D543046
:100C30000054283A54300054087854293D54310067
:100C4000542A38543200542B31543300542C2D5430
:100C50003400542D18543500542E2D543600542F82
:100C60002D54370061881554080054283A54300038
:100C700054283854300054087854293D54310054D5
:100C80002A38543200542B31543300542C2D543410
:100C900000542D18543500542E2D543600542F2D49
:100CA00054370061112B5408005428385430005434
:100CB000283654300054087854293D543100542AC1
:100CC00038543200542B31543300542C2D543400FA
:100CD000542D18543500542E2D543600542F2D54B5
:100CE00037006188155408005428365430005428C1
:100CF0003454300054087854293D543100542A3873
:100D0000543200542B31543300542C2D543400549D
:100D10002D18543500542E2D543600542F2D543791
:100D20000061881554080054283454300054283683
:100D300054300054087854080154293D543100546B
:100D4000293A543100540879540802542A3854324C
:100D500000542A3654320054087A540803542B3174
:100D6000543300542B3154330054087B540804543A
:100D70002C2D543400542C2A54340054087C54082C
:100D800005542D18543500542D1154350054087D48
:100D9000542E2D543600542F2D543700618815548D
:100DA0000800542836543000542834543000540875
:100DB0007854293A543100542A36543200542B3195
:100DC000543300542C2A543400542D1154350054FB
:100DD0002E2D543600542F2D543700618815540899
:100DE00000542834543000542831543000540878CA
:100DF00054293A543100542A36543200542B315479
:100E00003300542C2A543400542D11543500542EE0
:100E10002D543600542F2D54370061881554080086
:100E20005428315430005428345430005408785435
:100E3000293A543100542A36543200542B31543359
:100E400000542C2A543400542D11543500542E2DA6
:100E5000543600542F2D543700618815540800541F
:100E6000283454300054283654300054087854291B
:100E70003A543100542A36543200542B3154330042
:100E8000542C2A543400542D11543500542E2D5412
:100E90003600542F2D54370061881554080054280B
:100EA0003654300054283854300054087854293AC5
:100EB000543100542A36543200542B3154330054E8
:100EC0002C2A543400542D11543500542E2D5436F0
:100ED00000542F2D543700618815540800542838C9
:100EE00054300054283A54300054087854293A5465
:100EF0003100542A36543200542B31543300542CD0
:100F00002A543400542D11543500542E2D543600DB
:100F1000542F2D54370061881554080054283A5432
:100F2000300054283D54300054087854293A543144
:100F300000542A36543200542B31543300542C2A96
:100F4000543400542D11543500542E2D5436005471
:100F50002F2D54370061881554080054283D543013
:100F60000054283854300054087854080154293A61
:100F700054310054293D5431005408795408025426
:100F80002A36543200542A3854320054087A54080D
:100F900003542B31543300542B3154330054087B09
:100FA000540804542C2A543400542C2D5434005426
:100FB000087C540805542D11543500542D1854350F
:100FC0000054087D542E2D543600542F2D543700D4
:100FD00061112B54080054283854300054283D54D3
:100FE000300054087854293D543100542A38543282
:100FF00000542B31543300542C2D543400542D18EC
:10100000543500542E2D543600542F2D5437006182
:10101000881554080054283D54300054283A543060
:101020000054087854293D543100542A3854320071
:10103000542B31543300542C2D543400542D185457
:101040003500542E2D543600542F2D54370061880E
:101050001554080054283A54300054283D543000A8
:1010600054087854293D543100542A3854320054DD
:101070002B31543300542C2D543400542D18543536
:1010800000542E2D543600542F2D54370061112B4F
:1010900054080054283D5430005428405430005423
:1010A000087854293D543100542A38543200542BC6
:1010B00031543300542C2D543400542D1854350021
:1010C000542E2D543600542F2D543700618815545A
:1010D000080054284054300054284154300054082B
:1010E0007854293D543100542A38543200542B315D
:1010F000543300542C2D543400542D1854350054BE
:101100002E2D543600542F2D543700618815540865
:101110000054284154300054283A54300054087880
:1011200054080154293D543100542940543100548D
:101130000879540802542A38543200542A3A543256
:101140000054087A540803542B31543300542B3480
:1011500054330054087B540804542C2D5434005448
:101160002C3054340054087C540805542D18543540
:1011700000542D1A54350054087D542E2D54360039
:10118000542F2D54370061881554080054283A54C0
:10119000300054283D5430005408785429405431CC
:1011A00000542A3A543200542B34543300542C3017
:1011B000543400542D1A543500542E2D54360054F6
:1011C0002F2D54370061881554080054283D5430A1
:1011D00000542840543000540878542940543100B9
:1011E000542A3A543200542B34543300542C305483
:1011F0003400542D1A543500542E2D543600542FDB
:101200002D5437006188155408005428405430008C
:101210005428415430005408785429405431005423
:101220002A3A543200542B34543300542C30543462
:1012300000542D1A543500542E2D543600542F2DA1
:101240005437006188155408005428415430005424
:101250002844543000540878542940543100542A0A
:101260003A543200542B34543300542C305434004C
:10127000542D1A543500542E2D543600542F2D540D
:10128000370061881554080054284454300054280D
:1012900046543000540878542940543100542A3AB6
:1012A000543200542B34543300542C3054340054F2
:1012B0002D1A543500542E2D543600542F2D5437EA
:1012C00000618815540800542846543000542848BA
:1012D000543000540878542940543100542A3A5468
:1012E0003200542B34543300542C30543400542DD9
:1012F0001A543500542E2D543600542F2D543700D7
:1013000061881554080054284854300054284A5421
:101310003000540878542940543100542A3A543249
:1013200000542B34543300542C30543400542D1AB0
:10133000543500542E2D543600542F2D543700614F
:10134000881554080054284A543000542846543014
:10135000005408785408015429405431005429415C
:10136000543100540879540802542A3A5432005433
:101370002A4154320054087A540803542B3454330D
:1013800000542B3A54330054087B540804542C3036
:10139000543400542C3654340054087C54080554FA
:1013A0002D1A543500542D2154350054087D542EE7
:1013B0002D543600542F2D54370061112B54080042
:1013C000542846543000542841543000540878546E
:1013D000080154294154310054294654310054081D
:1013E00079542A41543200542B3A543300542C3649
:1013F000543400542D21543500542E2D54360054AD
:101400002F2D54370061881554080054284154305A
:101410000054284454300054087854080154294694
:10142000543100542948543100540879542A415405
:101430003200542B3A543300542C36543400542D7B
:1014400021543500542E2D543600542F2D5437007E
:1014500061881554080054284454300054284654D8
:101460003000540878540801542948543100542954
:101470004A543100540879542A41543200542B3ACA
:10148000543300542C36543400542D215435005418
:101490002E2D543600542F2D54370061112B540833
:1014A00000542846543000542844543000540878DE
:1014B00054080154294A54310054294654310054E7
:1014C0000879542A41543200542B3A543300542C96
:1014D00036543400542D21543500542E2D543600EA
:1014E000542F2D5437006188155408005428445453
:1014F00030005428415430005408785408015429CD
:1015000046543100542948543100540879542A4132
:10151000543200542B3A543300542C365434005473
:101520002D21543500542E2D543600542F2D543770
:101530000061881554080054284154300054284450
:101540005430005408785408015429485431005448
:10155000294A543100540879540802542A4154321B
:1015600000542A4054320054087A540803542B3A49
:10157000543300542B3A54330054087B5408045419
:101580002C36543400542C3454340054087C540801
:1015900005542D21543500542D1A54350054087D1E
:1015A000542E2D543600542F2D5437006188155475
:1015B0000800542844543000542840543000540843
:1015C0007854080154294A54310054293A543100BE
:1015D000540879542A40543200542B3A543300545E
:1015E0002C34543400542D1A543500542E2D5436B6
:1015F00000542F2D5437006188155408005428409A
:101600005430005428415430005408785408015490
:10161000293A54310054293D543100540879542A50
:1016200040543200542B3A543300542C3454340078
:10163000542D1A543500542E2D543600542F2D5449
:10164000370061881554080054284154300054284C
:101650004454300054087854080154293D54310052
:10166000542940543100540879542A4054320054CB
:101670002B3A543300542C34543400542D1A54351E
:1016800000542E2D543600542F2D543700618815E8
:101690005408005428445430005428465430005410
:1016A00008785408015429405431005429415431D8
:1016B00000540879542A40543200542B3A543300D1
:1016C000542C34543400542D1A543500542E2D54B7
:1016D0003600542F2D5437006188155408005428C3
:1016E00046543000542844543000540878540801BB
:1016F0005429415431005429445431005408795438
:101700002A40543200542B3A543300542C3454346D
:1017100000542D1A543500542E2D543600542F2DBC
:10172000543700618815540800542844543000543C
:101730002841543000540878540801542944543145
:1017400000542946543100540879542A4054320038
:10175000542B3A543300542C34543400542D1A541E
:101760003500542E2D543600542F2D5437006188E7
:101770001554080054284154300054284054300077
:1017800054087854080154294654310054294854C7
:101790003100540879542A40543200542B3A5433BF
:1017A00000542C34543400542D1A543500542E2D2A
:1017B000543600542F2D54370061881554080054B6
:1017C00028405430005428415430005408785408BC
:1017D00001542948543100542946543100540879A1
:1017E000540802542A40543200542A3D54320054C2
:1017F000087A540803542B3A543300542B3654338C
:101800000054087B540804542C34543400542C31B4
:1018100054340054087C540805542D1A543500548F
:101820002D1D54350054087D542E2D543600542F50
:101830002D54370061112B540800542841543000B6
:1018400054283D5430005408785408015429465413
:101850003100542941543100540879542A3D5432FE
:1018600000542B36543300542C31543400542D1D65
:10187000543500542E2D543600542F2D543700610A
:10188000881554080054283D5430005428405430E2
:101890000054087854080154294154310054294413
:1018A000543100540879542A3D543200542B365494
:1018B0003300542C31543400542D1D543500542E13
:1018C0002D543600542F2D543700618815540800CC
:1018D000542840543000542841543000540878545F
:1018E0000801542944543100542946543100540805
:1018F00079542A3D543200542B36543300542C3141
:10190000543400542D1D543500542E2D543600549B
:101910002F2D54370061112B5408005428415430A6
:101920000054283154300054087854080154294692
:10193000543100542936543100540879542A3D5406
:101940003200542B36543300542C31543400542D6F
:101950001D543500542E2D543600542F2D5437006D
:1019600061881554080054283154300054283454E8
:101970003000540878540801542936543100542951
:1019800038543100540879542A3D543200542B36CF
:10199000543300542C31543400542D1D543500540C
:1019A0002E2D543600542F2D5437006188155408BD
:1019B00000542834543000542836543000540878E9
:1019C00054080154293854310054293A54310054F0
:1019D0000879540802542A3D543200542A3A5432A9
:1019E0000054087A540803542B36543300542B36D1
:1019F00054330054087B540804542C31543400549C
:101A00002C3054340054087C540805542D1D543592
:101A100000542D1654350054087D542E2D54360094
:101A2000542F2D543700618815540800542836541B
:101A30003000542838543000540878540801542990
:101A40003A54310054293D543100540879542A3A0B
:101A5000543200542B36543300542C305434005438
:101A60002D16543500542E2D543600542F2D543736
:101A70000061881554080054283854300054283622
:101A800054300054087854080154293D543100540E
:101A9000293A543100540879542A3A543200542BCC
:101AA00036543300542C30543400542D1654350021
:101AB000542E2D543600542F2D5437006188155460
:101AC0000800542836543000542834543000540848
:101AD0007854080154293A543100542938543100BB
:101AE000540879542A3A543200542B365433005453
:101AF0002C30543400542D16543500542E2D5436A9
:101B000000542F2D54370061881554080054283490
:101B10005430005428365430005408785408015486
:101B2000293854310054293A543100540879542A40
:101B30003A543200542B36543300542C3054340071
:101B4000542D16543500542E2D543600542F2D5438
:101B50003700618815540800542836543000542842
:101B60004154300054087854080154293A54310043
:101B7000542936543100540879542A3A54320054C6
:101B80002B36543300542C30543400542D16543515
:101B900000542E2D543600542F2D543700618815D3
:101BA0005408005428415430005428405430005404
:101BB00008785408015429365431005429385431D6
:101BC00000540879542A3A543200542B36543300C6
:101BD000542C30543400542D16543500542E2D54AA
:101BE0003600542F2D5437006188155408005428AE
:101BF00040543000542841543000540878540801AF
:101C000054293854310054293A5431005408795435
:101C10002A3A543200542B36543300542C30543466
:101C200000542D16543500542E2D543600542F2DAB
:101C3000543700618815540800542841543000542A
:101C4000283D54300054087854080154293A54313E
:101C500000542938543100540879540802542A3A5F
:101C6000543200542A3854320054087A5408035429
:101C70002B36543300542B3154330054087B540812
:101C800004542C30543400542C2D54340054087C0B
:101C9000540805542D16543500542D18543500544D
:101CA000087D542E2D543600542F2D5437006111C9
:101CB0002B54080054283D5430005428415430001F
:101CC00054087854080154293854310054293D549B
:101CD0003100540879542A38543200542B3154338B
:101CE00000542C2D543400542D18543500542E2DEE
:101CF000543600542F2D5437006188155408005471
:101D00002841543000542840543000540878540876
:101D10000154293D54310054293A54310054087972
:101D2000542A38543200542B31543300542C2D543F
:101D30003400542D18543500542E2D543600542F91
:101D40002D54370061881554080054284054300041
:101D500054283D54300054087854080154293A540A
:101D60003100542938543100540879542A385432F7
:101D700000542B31543300542C2D543400542D185E
:101D8000543500542E2D543600542F2D54370061F5
:101D9000112B54080054283D54300054283A543034
:101DA0000054087854080154293854310054293615
:101DB000543100540879542A38543200542B315489
:101DC0003300542C2D543400542D18543500542E07
:101DD0002D543600542F2D543700618815540800B7
:101DE00054283A5430005428385430005408785459
:101DF0000801542936543100542934543100540810
:101E000079542A38543200542B31543300542C2D39
:101E1000543400542D18543500542E2D543600548B
:101E20002F2D543700618815540800542838543039
:101E30000054283A54300054087854080154293486
:101E4000543100542936543100540879540802544E
:101E50002A38543200542A3654320054087A54082E
:101E600003542B31543300542B3154330054087B2A
:101E7000540804542C2D543400542C2A5434005447
:101E8000087C540805542D18543500542D11543530
:101E90000054087D542E2D543600542F2D543700F5
:101EA00061881554080054283A5430005428385496
:101EB000300054087854080154293654310054290C
:101EC00034543100540879542A36543200542B319A
:101ED000543300542C2A543400542D1154350054DA
:101EE0002E2D543600542F2D543700618815540878
:101EF00000542838543000542836543000540878A0
:101F000054080154293454310054293154310054B7
:101F10000879542A36543200542B31543300542C4F
:101F20002A543400542D11543500542E2D543600AB
:101F3000542F2D5437006188155408005428365406
:101F4000300054283854300054087854080154297B
:101F500031543100542934543100540879542A360C
:101F6000543200542B31543300542C2A543400542E
:101F70002D11543500542E2D543600542F2D543726
:101F80000061881554080054283854300054283A09
:101F90005430005408785408015429345431005402
:101FA0002936543100540879542A36543200542BBF
:101FB00031543300542C2A543400542D115435001C
:101FC000542E2D543600542F2D543700618815544B
:101FD000080054283A54300054283D543000540826
:101FE00078540801542936543100542938543100AA
:101FF000540879542A36543200542B315433005447
:102000002C2A543400542D11543500542E2D54369E
:1020100000542F2D54370061881554080054283D72
:102020005430005428405430005408785408015467
:10203000293854310054293A543100540879542A2B
:1020400036543200542B31543300542C2A5434006B
:10205000542D11543500542E2D543600542F2D5428
:102060003700618815540800542840543000542823
:102070004154300054087854080154293A5431002E
:1020800054293D543100540879542A3654320054AE
:102090002B31543300542C2A543400542D11543510
:1020A00000542E2D543600542F2D543700618815BE
:1020B00054080054284154300054283D54300054F2
:1020C000087854080154293D5431005429385431BA
:1020D00000540879540802542A36543200542A38DD
:1020E00054320054087A540803542B3154330054AA
:1020F0002B3154330054087B540804542C2A543494
:1021000000542C2D54340054087C540805542D11CF
:10211000543500542D1854350054087D542E2D5438
:102120003600542F2D54370061112B5408005428C9
:102130003D5430005428415430005408785408016C
:1021400054293854310054293D54310054087954ED
:102150002A38543200542B31543300542C2D54342B
:1021600000542D18543500542E2D543600542F2D64
:1021700054370061881554080054284154300054E5
:10218000284054300054087854080154293D5431F3
:102190000054293A543100540879542A38543200F2
:1021A000542B31543300542C2D543400542D1854D6
:1021B0003500542E2D543600542F2D54370061888D
:1021C000155408005428405430005428415430001D
:1021D00054087854080154293A54310054293D5484
:1021E0003100540879542A38543200542B31543376
:1021F00000542C2D543400542D18543500542E2DD9
:10220000543600542F2D54370061112B54080054BC
:102210002841543000542840543000540878540861
:102220000154293D54310054294054310054087957
:10223000542A38543200542B31543300542C2D542A
:102240003400542D18543500542E2D543600542F7C
:102250002D5437006188155408005428405430002C
:1022600054283D54300054087854080154294054EF
:102270003100542941543100540879542A385432D9
:1022800000542B31543300542C2D543400542D1849
:10229000543500542E2D543600542F2D54370061E0
:1022A000881554080054283D5430005428405430B8
:1022B0000054087854080154294154310054293AF3
:1022C000543100540879540802542A3854320054C6
:1022D0002A3A54320054087A540803542B315433A8
:1022E00000542B3454330054087B540804542C2DD0
:1022F000543400542C3054340054087C5408055491
:102300002D18543500542D1A54350054087D542E80
:102310002D543600542F2D54370061881554080071
:102320005428405430005428415430005408785404
:10233000080154293A54310054293D5431005408BD
:1023400079542A3A543200542B34543300542C30EC
:10235000543400542D1A543500542E2D5436005444
:102360002F2D5437006188155408005428415430EB
:102370000054284454300054087854080154293D2E
:10238000543100542940543100540879542A3A54A5
:102390003200542B34543300542C30543400542D18
:1023A0001A543500542E2D543600542F2D54370016
:1023B000618815540800542844543000542841546E
:1023C00030005408785408015429405431005429ED
:1023D00041543100540879542A3A543200542B3471
:1023E000543300542C30543400542D1A54350054B6
:1023F0002E2D543600542F2D543700618815540863
:102400000054284154300054284054300054087877
:102410005408015429415431005429445431005482
:102420000879542A3A543200542B34543300542C33
:1024300030543400542D1A543500542E2D54360087
:10244000542F2D54370061881554080054284054E7
:10245000300054284154300054087854080154295D
:1024600044543100542946543100540879542A3ACE
:10247000543200542B34543300542C305434005410
:102480002D1A543500542E2D543600542F2D543708
:102490000061881554080054284154300054283DE8
:1024A00054300054087854080154294654310054DB
:1024B0002948543100540879542A3A543200542B94
:1024C00034543300542C30543400542D1A543500F5
:1024D000542E2D543600542F2D5437006188155436
:1024E000080054283D54300054284054300054080B
:1024F0007854080154294854310054294A54310071
:10250000540879542A3A543200542B34543300542A
:102510002C30543400542D1A543500542E2D54367A
:1025200000542F2D5437006188155408005428405A
:102530005430005428415430005408785408015451
:10254000294A54310054294654310054087954081A
:1025500002542A3A543200542A4154320054087A20
:10256000540803542B34543300542B3A543300543E
:10257000087B540804542C30543400542C36543402
:102580000054087C540805542D1A543500542D214C
:1025900054350054087D542E2D543600542F2D549C
:1025A000370061112B54080054284154300054283E
:1025B0004A543000540878540801542946543100D4
:1025C000542941543100540879542A41543200545A
:1025D0002B3A543300542C36543400542D215435A6
:1025E00000542E2D543600542F2D54370061881579
:1025F00054284A543000540801542941543100549D
:102600002944543100540879542A41543200542B3F
:102610003A543300542C36543400542D2154350090
:10262000542E2D543600542F2D54370061881554E4
:10263000080054284A54300054284A5430005408A2
:102640007854080154294454310054294654310027
:10265000540879542A41543200542B3A54330054CC
:102660002C36543400542D21543500542E2D54361C
:1026700000542F2D54370061112B54080054284A60
:1026800054300054284A54300054087854080154F7
:102690002946543100542944543100540879542AAD
:1026A00041543200542B3A543300542C36543400E5
:1026B000542D21543500542E2D543600542F2D54B2
:1026C000370061881554284A5430005408015429B1
:1026D00044543100542941543100540879542A415A
:1026E000543200542B3A543300542C365434005492
:1026F0002D21543500542E2D543600542F2D54378F
:102700000061881554080054284A54300054284A5F
:10271000543000540878540801542941543100546D
:102720002944543100540879540802542A4154323F
:1027300000542A4054320054087A540803542B3A67
:10274000543300542B3A54330054087B5408045437
:102750002C36543400542C3454340054087C54081F
:1027600005542D21543500542D1A54350054087D3C
:10277000542E2D543600542F2D5437006188155493
:10278000284A543000540801542944543100542933
:1027900040543100540879542A40543200542B3AA2
:1027A000543300542C34543400542D1A54350054EE
:1027B0002E2D543600542F2D54370061881554089F
:1027C0000054284A54300054284A543000540878A1
:1027D00054080154294054310054294154310054C3
:1027E0000879542A40543200542B3A543300542C64
:1027F00034543400542D1A543500542E2D543600C0
:10280000542F2D54370061881554284A54300054F1
:1028100008015429415431005429445431005408CA
:1028200079542A40543200542B3A543300542C34F7
:10283000543400542D1A543500542E2D543600545F
:102840002F2D54370061881554080054284A5430FD
:102850000054284A5430005408785408015429443C
:10286000543100542946543100540879542A4054B4
:102870003200542B3A543300542C34543400542D29
:102880001A543500542E2D543600542F2D54370031
:1028900061881554284A543000540801542946547C
:1028A0003100542944543100540879542A40543298
:1028B00000542B3A543300542C34543400542D1A01
:1028C000543500542E2D543600542F2D54370061AA
:1028D000881554080054284A54300054284A54306B
:1028E00000540878540801542944543100542941B3
:1028F000543100540879542A40543200542B3A542D
:102900003300542C34543400542D1A543500542EB2
:102910002D543600542F2D54370061881554284A01
:102920005430005408015429415431005429405472
:102930003100540879542A40543200542B3A54330D
:1029400000542C34543400542D1A543500542E2D78
:10295000543600542F2D5437006188155408005404
:10296000284A5430005428465430005408785408FB
:1029700001542940543100542941543100540879FC
:10298000540802542A40543200542A3D5432005410
:10299000087A540803542B3A543300542B365433DA
:1029A0000054087B540804542C34543400542C3103
:1029B00054340054087C540805542D1A54350054DE
:1029C0002D1D54350054087D542E2D543600542F9F
:1029D0002D54370061112B54080054284654300000
:1029E000542846543000540878540801542941545E
:1029F000310054293D543100540879542A3D543251
:102A000000542B36543300542C31543400542D1DB3
:102A1000543500542E2D543600542F2D5437006158
:102A2000881554284654300054080154293D543127
:102A300000542940543100540879542A3D5432003E
:102A4000542B36543300542C31543400542D1D541F
:102A50003500542E2D543600542F2D5437006188E4
:102A60001554080054284654300054284654300069
:102A700054087854080154294054310054294154D1
:102A80003100540879542A3D543200542B365433C3
:102A900000542C31543400542D1D543500542E2D27
:102AA000543600542F2D54370061112B5408005414
:102AB00028465430005428465430005408785408AE
:102AC00001542941543100542931543100540879BA
:102AD000542A3D543200542B36543300542C315474
:102AE0003400542D1D543500542E2D543600542FCF
:102AF0002D5437006188155428465430005408017D
:102B00005429315431005429345431005408795433
:102B10002A3D543200542B36543300542C31543453
:102B200000542D1D543500542E2D543600542F2D95
:102B30005437006188155408005428465430005416
:102B4000284654300054087854080154293454312C
:102B500000542936543100540879540802542A3D4F
:102B6000543200542A3A54320054087A5408035418
:102B70002B36543300542B3654330054087B5408FE
:102B800004542C31543400542C3054340054087CF8
:102B9000540805542D1D543500542D165435005439
:102BA000087D542E2D543600542F2D543700618843
:102BB0001554284654300054080154293654310025
:102BC000542938543100540879542A3A5432005464
:102BD0002B36543300542C30543400542D165435B5
:102BE00000542E2D543600542F2D54370061881573
:102BF0005408005428465430005428465430005499
:102C00000878540801542938543100542936543175
:102C100000540879542A3A543200542B3654330065
:102C2000542C30543400542D16543500542E2D5449
:102C30003600542F2D5437006188155428465430DF
:102C400000540801542936543100542934543100B9
:102C5000540879542A3A543200542B3654330054D1
:102C60002C30543400542D16543500542E2D543627
:102C700000542F2D543700618815540800542846FD
:102C800054300054284A54300054087854080154F1
:102C90002934543100542936543100540879542AC7
:102CA0003A543200542B36543300542C30543400F0
:102CB000542D16543500542E2D543600542F2D54B7
:102CC000370061881554284A5430005408015429AB
:102CD00036543100542941543100540879542A3A69
:102CE000543200542B36543300542C305434005496
:102CF0002D16543500542E2D543600542F2D543794
:102D00000061881554080054284A54300054284A59
:102D10005430005408785408015429415431005467
:102D20002940543100540879542A3A543200542B23
:102D300036543300542C30543400542D165435007E
:102D4000542E2D543600542F2D54370061881554BD
:102D5000284A543000540801542940543100542961
:102D600041543100540879542A3A543200542B36D5
:102D7000543300542C30543400542D165435005420
:102D80002E2D543600542F2D5437006188155408C9
:102D90000054284A543000542848543000540878CD
:102DA00054080154294154310054293D54310054F0
:102DB0000879540802542A3A543200542A385432BA
:102DC0000054087A540803542B36543300542B31E2
:102DD00054330054087B540804542C3054340054A9
:102DE0002C2D54340054087C540805542D165435A9
:102DF00000542D1854350054087D542E2D5436009F
:102E0000542F2D54370061112B5408005428485476
:102E1000300054284854300054087854080154298C
:102E20003D543100542941543100540879542A3812
:102E3000543200542B31543300542C2D543400544C
:102E40002D18543500542E2D543600542F2D543740
:102E50000061881554284854300054080154294111
:102E6000543100542940543100540879542A3854BC
:102E70003200542B31543300542C2D543400542D33
:102E800018543500542E2D543600542F2D5437002D
:102E90006188155408005428485430005428485478
:102EA0003000540878540801542940543100542902
:102EB0003D543100540879542A38543200542B318F
:102EC000543300542C2D543400542D1854350054D0
:102ED0002E2D543600542F2D54370061112B5408D9
:102EE0000054284854300054285154300054087875
:102EF00054080154293D54310054293A54310054A6
:102F00000879542A38543200542B31543300542C4D
:102F10002D543400542D18543500542E2D543600A1
:102F2000542F2D54370061881554285154300054C3
:102F3000080154293A5431005429385431005408B6
:102F400079542A38543200542B31543300542C2DE8
:102F5000543400542D18543500542E2D543600543A
:102F60002F2D5437006188155408005428515430CF
:102F7000005428515430005408785408015429381A
:102F800054310054293A54310054087954080254F9
:102F90002A38543200542A3654320054087A5408DD
:102FA00003542B31543300542B3154330054087BD9
:102FB000540804542C2D543400542C2A54340054F6
:102FC000087C540805542D18543500542D115435DF
:102FD0000054087D542E2D543600542F2D543700A4
:102FE00061881554285154300054080154293A542A
:102FF0003100542938543100540879542A36543257
:1030000000542B31543300542C2A543400542D11C5
:10301000543500542E2D543600542F2D5437006152
:103020008815540800542851543000542851543005
:103030000054087854080154293854310054293672
:10304000543100540879542A36543200542B3154E8
:103050003300542C2A543400542D11543500542E6E
:103060002D543600542F2D543700618815542851A3
:10307000543000540801542936543100542938542E
:103080003100540879542A36543200542B315433C9
:1030900000542C2A543400542D11543500542E2D34
:1030A000543600542F2D54370061881554080054AD
:1030B0002851543000542851543000540878540892
:1030C0000154293854310054293A543100540879B4
:1030D000542A36543200542B31543300542C2A5481
:1030E0003400542D11543500542E2D543600542FD5
:1030F0002D5437006188155428515430005408016C
:1031000054293A54310054293D543100540879541B
:103110002A36543200542B31543300542C2A543460
:1031200000542D11543500542E2D543600542F2D9B
:103130005437006188155408005428515430005405
:10314000285154300054087854080154293D543112
:1031500000542940543100540879542A365432001E
:10316000542B31543300542C2A543400542D115410
:103170003500542E2D543600542F2D5437006188BD
:10318000155428515430005408015429405431003A
:10319000542941543100540879542A365432005489
:1031A0002B31543300542C2A543400542D115435EF
:1031B00000542E2D543600542F2D5437006188159D
:1031C00054080054285154300054285154300054AD
:1031D000087854080154294154310054293D543190
:1031E00000540879540802542A36543200542A38BC
:1031F00054320054087A540803542B315433005489
:103200002B3154330054087B540804542C2A543472
:1032100000542C2D54340054087C540805542D11AE
:10322000543500542D1854350054087D542E2D5417
:103230003600542F2D54370061112B5408005428A8
:103240005154300054285154300054087854080127
:1032500054293D54310054294154310054087954C3
:103260002A38543200542B31543300542C2D54340A
:1032700000542D18543500542E2D543600542F2D43
:1032800054370061881554285154300054080154B3
:103290002941543100542940543100540879542AAA
:1032A00038543200542B31543300542C2D543400F4
:1032B000542D18543500542E2D543600542F2D54AF
:1032C00037006188155408005428515430005428A0
:1032D0004D543000540878540801542940543100AA
:1032E000542941543100540879542A385432005436
:1032F0002B31543300542C2D543400542D18543594
:1033000000542E2D543600542F2D54370061112BAC
:1033100054080054284D54300054284D5430005463
:10332000087854080154294154310054294054313B
:1033300000540879542A38543200542B3154330045
:10334000542C2D543400542D18543500542E2D5423
:103350003600542F2D54370061881554284D5430B1
:103360000054080154294054310054293D5431007F
:10337000540879542A38543200542B3154330054B1
:103380002C2D543400542D18543500542E2D543601
:1033900000542F2D54370061881554080054284DCF
:1033A00054300054284A54300054087854080154CA
:1033B000293D5431005429405431005408795408AF
:1033C00002542A38543200542A3A54320054087AAB
:1033D000540803542B31543300542B3454330054C9
:1033E000087B540804542C2D543400542C3054348D
:1033F0000054087C540805542D18543500542D1AD7
:1034000054350054087D542E2D543600542F2D541D
:10341000370061881554284A543000540801542953
:1034200040543100542941543100540879542A3A07
:10343000543200542B34543300542C305434005440
:103440002D1A543500542E2D543600542F2D543738
:103450000061881554080054284A54300054284A02
:103460005430005408785408015429415431005410
:103470002944543100540879542A3A543200542BC8
:1034800034543300542C30543400542D1A54350025
:10349000542E2D543600542F2D5437006188155466
:1034A000284A543000540801542944543100542906
:1034B00041543100540879542A3A543200542B3480
:1034C000543300542C30543400542D1A54350054C5
:1034D0002E2D543600542F2D543700618815540872
:1034E0000054284A5430005428545430005408786A
:1034F0005408015429415431005429405431005496
:103500000879542A3A543200542B34543300542C42
:1035100030543400542D1A543500542E2D54360096
:10352000542F2D54370061881554285454300054BA
:1035300008015429405431005429415431005408A1
:1035400079542A3A543200542B34543300542C30DA
:10355000543400542D1A543500542E2D5436005432
:103560002F2D5437006188155408005428545430C6
:10357000005428505430005408785408015429410C
:1035800054310054293D543100540879542A3A5496
:103590003200542B34543300542C30543400542D06
:1035A0001A543500542E2D543600542F2D54370004
:1035B00061881554285054300054080154293D5452
:1035C0003100542940543100540879542A3A543275
:1035D00000542B34543300542C30543400542D1ADE
:1035E000543500542E2D543600542F2D543700617D
:1035F0008815540800542850543000542851543031
:103600000054087854080154294054310054294189
:10361000543100540879540802542A3A5432005460
:103620002A4154320054087A540803542B3454333A
:1036300000542B3A54330054087B540804542C3063
:10364000543400542C3654340054087C5408055427
:103650002D1A543500542D2154350054087D542E14
:103660002D543600542F2D54370061112B5408006F
:103670005428515430005428415430005408785490
:10368000080154294154310054294A543100540846
:1036900079542A41543200542B3A543300542C3676
:1036A000543400542D21543500542E2D54360054DA
:1036B0002F2D543700618815540800542841543088
:1036C0000054284454300054087854294A54310096
:1036D000542A41543200542B3A543300542C36545B
:1036E0003400542D21543500542E2D543600542FBF
:1036F0002D54370061881554080054284454300074
:1037000054284654300054087854080154294A5427
:10371000310054294A543100540879542A41543212
:1037200000542B3A543300542C36543400542D2179
:10373000543500542E2D543600542F2D543700612B
:10374000112B54080054284654300054284154305A
:103750000054087854080154294A54310054294A25
:10376000543100540879542A41543200542B3A54AD
:103770003300542C36543400542D21543500542E2B
:103780002D543600542F2D54370061112B5408004E
:103790005428415430005428405430005408785480
:1037A000080154294A54310054294A54310054081C
:1037B00079540802542A41543200542A3A543200AF
:1037C00054087A540803542B3A543300542B34547D
:1037D000330054087B540804542C36543400542CC1
:1037E0003054340054087C540805542D21543500BD
:1037F000542D1A54350054087D542E2D543600543F
:103800002F2D54370061112B540800542840543098
:103810000054285054300054087854080154294A60
:1038200054310054294A543100540879542A3A54E6
:103830003200542B34543300542C30543400542D63
:103840001A543500542E2D543600542F2D54370061
:10385000618815540800542850543000542851549D
:10386000300054087854294A543100542A3A5432CA
:1038700000542B34543300542C30543400542D1A3B
:10388000543500542E2D543600542F2D54370061DA
:10389000881554080054285154300054285454308A
:1038A0000054087854080154294A54310054294AD4
:1038B000543100540879542A3A543200542B345469
:1038C0003300542C30543400542D1A543500542EE7
:1038D0002D543600542F2D54370061112B540800FD
:1038E000542854543000542850543000540878540C
:1038F000080154294A54310054294A5431005408CB
:1039000079542A3A543200542B34543300542C3016
:10391000543400542D1A543500542E2D543600546E
:103920002F2D54370061112B540800542850543067
:103930000054284D54300054087854080154294A42
:103940005431005429465431005408795408025423
:103950002A3A543200542A3D54320054087A54080A
:1039600003542B34543300542B3654330054087B07
:10397000540804542C30543400542C315434005422
:10398000087C540805542D1A543500542D1D543507
:103990000054087D542E2D543600542F2D543700DA
:1039A00061112B54080054284D54300054283D54C4
:1039B00030005408785408015429465431005429E1
:1039C00046543100540879542A3D543200542B3661
:1039D000543300542C31543400542D1D54350054AC
:1039E0002E2D543600542F2D54370061881554085D
:1039F0000054283D54300054284054300054087876
:103A0000542946543100542A3D543200542B365424
:103A10003300542C31543400542D1D543500542E91
:103A20002D543600542F2D5437006188155408004A
:103A300054284054300054284154300054087854DD
:103A40000801542946543100542946543100540881
:103A500079542A3D543200542B36543300542C31BF
:103A6000543400542D1D543500542E2D543600541A
:103A70002F2D54370061112B540800542841543025
:103A80000054283D54300054087854080154294605
:103A9000543100542946543100540879542A3D5475
:103AA0003200542B36543300542C31543400542DEE
:103AB0001D543500542E2D543600542F2D543700EC
:103AC00061112B54080054283D54300054284054B0
:103AD00030005408785408015429465431005429C0
:103AE00046543100540879540802542A3D54320097
:103AF000542A3654320054087A540803542B36544E
:103B00003300542B3154330054087B540804542C94
:103B100031543400542C2A54340054087C54080581
:103B2000542D1D543500542D1654350054087D5421
:103B30002E2D543600542F2D54370061112B54086C
:103B40000054284054300054284A54300054087817
:103B50005408015429465431005429465431005424
:103B60000879542A36543200542B31543300542CE3
:103B70002A543400542D16543500542E2D5436003A
:103B8000542F2D54370061881554080054284A5486
:103B90003000542848543000540878542946543191
:103BA00000542A36543200542B31543300542C2AFA
:103BB000543400542D16543500542E2D54360054D0
:103BC0002F2D54370061881554080054284854306C
:103BD00000542846543000540878540801542946AB
:103BE00054310054294A543100540879542A365427
:103BF0003200542B31543300542C2A543400542DA9
:103C000016543500542E2D543600542F2D543700A1
:103C100061112B5408005428465430005428445451
:103C2000300054087854080154294A54310054296A
:103C30004A543100540879542A36543200542B31F6
:103C4000543300542C2A543400542D165435005447
:103C50002E2D543600542F2D54370061112B54084B
:103C600000542844543000542841543000540878FB
:103C700054080154294A54310054294854310054FD
:103C80000879540802542A36543200542A385432DF
:103C90000054087A540803542B31543300542B3108
:103CA00054330054087B540804542C2A54340054D0
:103CB0002C2D54340054087C540805542D165435CA
:103CC00000542D1854350054087D542E2D543600C0
:103CD000542F2D54370061112B540800542841549F
:103CE00030005428485430005408785408015429AE
:103CF00048543100542948543100540879542A3822
:103D0000543200542B31543300542C2D543400546D
:103D10002D18543500542E2D543600542F2D543761
:103D2000006188155408005428485430005428462F
:103D3000543000540878542948543100542A3854D7
:103D40003200542B31543300542C2D543400542D54
:103D500018543500542E2D543600542F2D5437004E
:103D6000618815540800542846543000542844549F
:103D7000300054087854080154294854310054291B
:103D800048543100540879542A38543200542B31A5
:103D9000543300542C2D543400542D1854350054F1
:103DA0002E2D543600542F2D54370061112B5408FA
:103DB00000542844543000542848543000540878A3
:103DC00054080154294854310054294154310054B5
:103DD0000879542A38543200542B31543300542C6F
:103DE0002D543400542D18543500542E2D543600C3
:103DF000542F2D54370061112B5408005428485477
:103E0000300054284654300054087854080154298E
:103E10004154310054294154310054087954080266
:103E2000542A38543200542A3154320054087A54F7
:103E30000803542B31543300542B2A5433005408B4
:103E40007B540804542C2D543400542C2654340034
:103E500054087C540805542D18543500542D115421
:103E6000350054087D542E2D543600542F2D5437D0
:103E70000061112B54080054284654300054284146
:103E800054300054087854080154294154310054E6
:103E90002941543100540879542A31543200542BAA
:103EA0002A543300542C26543400542D1154350018
:103EB000542E2D543600542F2D543700618815543C
:103EC0000800542841543000542844543000540809
:103ED00078542941543100542A31543200542B2A49
:103EE000543300542C26543400542D1154350054AE
:103EF0002E2D543600542F2D543700618815540848
:103F00000054284454300054284654300054087853
:103F1000540801542941543100542941543100546A
:103F20000879542A31543200542B2A543300542C2B
:103F300026543400542D11543500542E2D5436007F
:103F4000542F2D54370061112B5408005428465427
:103F5000300054284A543000540878540801542939
:103F600041543100542941543100540879542A31C4
:103F7000543200542B2A543300542C265434005409
:103F80002D11543500542E2D543600542F2D5437F6
:103F90000061112B54080054284A5430005428481A
:103FA00054300054087854080154294154310054C5
:103FB0002941543100540879540802542A315432AA
:103FC00000542A3854320054087A540803542B2AD7
:103FD000543300542B3454330054087B5408045495
:103FE0002C26543400542C3154340054087C54088A
:103FF00005542D11543500542D1854350054087DA6
:10400000542E2D543600542F2D54370061112B544B
:10401000080054284854300054284D5430005408A7
:104020007854080154294154310054294154310035
:10403000540879542A38543200542B3454330054E1
:104040002C31543400542D18543500542E2D543630
:1040500000542F2D54370061881554080054284D02
:1040600054300054284A543000540878542941549C
:104070003100542A38543200542B34543300542C19
:1040800031543400542D18543500542E2D5436001C
:10409000542F2D54370061881554080054284A5471
:1040A00030005428485430005408785408015429EA
:1040B0004154310054293D543100540879542A3870
:1040C000543200542B34543300542C3154340054A3
:1040D0002D18543500542E2D543600542F2D54379E
:1040E0000061112B540800542848543000542846CD
:1040F00054300054087854080154293D5431005478
:10410000293D543100540879542A38543200542B34
:1041100034543300542C31543400542D1854350089
:10412000542E2D543600542F2D54370061112B542A
:104130000800542846543000542844543000540891
:104140007854080154293D54310054293A5431001F
:10415000540879540802542A38543200542A3A54E4
:10416000320054087A540803542B34543300542B2F
:104170003454330054087B540804542C3154340014
:10418000542C3054340054087C540805542D1854D1
:104190003500542D1A54350054087D542E2D5436B4
:1041A00000542F2D54370061112B5408005428441B
:1041B00054300054284A54300054087854080154AC
:1041C000293A54310054293A543100540879542A78
:1041D0003A543200542B34543300542C30543400AD
:1041E000542D1A543500542E2D543600542F2D546E
:1041F000370061881554080054284A543000542868
:104200004854300054087854293A543100542A3A1A
:10421000543200542B34543300542C305434005452
:104220002D1A543500542E2D543600542F2D54374A
:10423000006188155408005428485430005428461A
:1042400054300054087854080154293A5431005429
:10425000293A543100540879542A3A543200542BE4
:1042600034543300542C30543400542D1A54350037
:10427000542E2D543600542F2D54370061112B54D9
:104280000800542846543000542844543000540840
:104290007854080154293A543100542940543100CB
:1042A000540879542A3A543200542B34543300546D
:1042B0002C30543400542D1A543500542E2D5436BD
:1042C00000542F2D54370061112B540800542844FA
:1042D000543000542846543000540878540801548F
:1042E000294054310054294154310054087954086C
:1042F00002542A3A543200542A4154320054087A63
:10430000540803542B34543300542B3A5433005480
:10431000087B540804542C30543400542C36543444
:104320000054087C540805542D1A543500542D218E
:1043300054350054087D542E2D543600542F2D54DE
:10434000370061112B54080054284654300054287B
:104350004154300054087854080154294154310024
:10436000542941543100540879542A41543200549C
:104370002B3A543300542C36543400542D215435E8
:1043800000542E2D543600542F2D543700618815BB
:1043900054080054284154300054284054300054EC
:1043A00008785408015429415431005429445431A7
:1043B00000540879542A41543200542B3A543300A3
:1043C000542C36543400542D21543500542E2D5481
:1043D0003600542F2D543700618815540800542896
:1043E0004054300054284154300054087854080197
:1043F0005429445431005429465431005408795406
:104400002A41543200542B3A543300542C3654343D
:1044100000542D21543500542E2D543600542F2D88
:1044200054370061112B5408005428415430005473
:104430002836543000540878540801542946543121
:1044400000542941543100540879542A415432000F
:10445000542B3A543300542C36543400542D2154E8
:104460003500542E2D543600542F2D543700611131
:104470002B54080054283654300054283A54300045
:1044800054087854080154294154310054294054A7
:104490003100540879540802542A41543200542AF5
:1044A0003A54320054087A540803542B3A543300D7
:1044B000542B3454330054087B540804542C365481
:1044C0003400542C3054340054087C540805542DC6
:1044D00021543500542D1A54350054087D542E2D86
:1044E000543600542F2D54370061112B54080054BA
:1044F000283A54300054284A54300054087854085C
:104500000154294054310054295054310054087941
:10451000542A3A543200542B34543300542C30541F
:104520003400542D1A543500542E2D543600542F77
:104530002D54370061881554080054284A5430001F
:1045400054284D54300054087854080154295054CC
:104550003100542951543100540879542A3A5432C4
:1045600000542B34543300542C30543400542D1A3E
:10457000543500542E2D543600542F2D54370061DD
:10458000881554080054284D543000542850543095
:1045900000540878540801542951543100542954C6
:1045A000543100540879542A3A543200542B34546C
:1045B0003300542C30543400542D1A543500542EEA
:1045C0002D543600542F2D54370061112B54080000
:1045D00054285054300054284A5430005408785419
:1045E00008015429545431005429505431005408BE
:1045F00079542A3A543200542B34543300542C301A
:10460000543400542D1A543500542E2D5436005471
:104610002F2D54370061112B54080054284A543070
:104620000054284654300054087854080154295046
:10463000543100542951543100540879540802541B
:104640002A3A543200542A3D54320054087A54080D
:1046500003542B34543300542B3654330054087B0A
:10466000540804542C30543400542C315434005425
:10467000087C540805542D1A543500542D1D54350A
:104680000054087D542E2D543600542F2D543700DD
:1046900061112B54080054284654300054284154CA
:1046A00030005408785408015429515431005429D9
:1046B0003D543100540879542A3D543200542B366D
:1046C000543300542C31543400542D1D54350054AF
:1046D0002E2D543600542F2D543700618815540860
:1046E0000054284154300054284454300054087871
:1046F00054080154293D5431005429405431005488
:104700000879542A3D543200542B36543300542C2B
:1047100031543400542D1D543500542E2D54360080
:10472000542F2D54370061881554080054284454E0
:104730003000542846543000540878540801542955
:1047400040543100542941543100540879542A3DD1
:10475000543200542B36543300542C31543400540A
:104760002D1D543500542E2D543600542F2D543702
:104770000061112B5408005428465430005428413D
:1047800054300054087854080154294154310054DD
:10479000293D543100540879542A3D543200542B99
:1047A00036543300542C31543400542D1D543500EC
:1047B000542E2D543600542F2D54370061112B5494
:1047C00008005428415430005428465430005408FE
:1047D0007854080154293D54310054294054310083
:1047E000540879540802542A3D543200542A36544D
:1047F000320054087A540803542B36543300542B97
:104800003154330054087B540804542C3154340080
:10481000542C2A54340054087C540805542D1D543B
:104820003500542D1654350054087D542E2D543621
:1048300000542F2D54370061112B54080054284682
:104840005430005428465430005408785408015419
:10485000294054310054294A543100540879542ACB
:1048600036543200542B31543300542C2A54340023
:10487000542D16543500542E2D543600542F2D54DB
:1048800037006188155408005428465430005428D5
:104890004454300054087854080154294A543100D3
:1048A000542948543100540879542A36543200545B
:1048B0002B31543300542C2A543400542D165435C3
:1048C00000542E2D543600542F2D54370061881576
:1048D00054080054284454300054284154300054A3
:1048E0000878540801542948543100542946543159
:1048F00000540879542A36543200542B3154330072
:10490000542C2A543400542D16543500542E2D5452
:104910003600542F2D54370061112B5408005428B1
:104920004154300054284054300054087854080151
:1049300054294654310054294454310054087954C0
:104940002A36543200542B31543300542C2A543418
:1049500000542D16543500542E2D543600542F2D4E
:1049600054370061112B540800542840543000542F
:10497000283D5430005408785408015429445431D7
:1049800000542941543100540879540802542A36FD
:10499000543200542A3854320054087A54080354CC
:1049A0002B31543300542B3154330054087B5408BA
:1049B00004542C2A543400542C2D54340054087CB4
:1049C000540805542D16543500542D1854350054F0
:1049D000087D542E2D543600542F2D54370061116C
:1049E0002B54080054283D54300054283D543000C6
:1049F000540878540801542941543100542948542A
:104A00003100540879542A38543200542B3154332D
:104A100000542C2D543400542D18543500542E2D90
:104A2000543600542F2D5437006188155408005413
:104A3000283D54300054283A543000540878540823
:104A400001542948543100542946543100540879FE
:104A5000542A38543200542B31543300542C2D54E2
:104A60003400542D18543500542E2D543600542F34
:104A70002D54370061881554080054283A543000EA
:104A800054283D54300054087854080154294654A1
:104A90003100542944543100540879542A3854328E
:104AA00000542B31543300542C2D543400542D1801
:104AB000543500542E2D543600542F2D5437006198
:104AC000112B54080054283D5430005428405430D1
:104AD000005408785408015429445431005429489A
:104AE000543100540879542A38543200542B31542C
:104AF0003300542C2D543400542D18543500542EAA
:104B00002D543600542F2D54370061112B540800BA
:104B100054284054300054284154300054087854EC
:104B2000080154294854310054294654310054088E
:104B300079540802542A38543200542A315432002D
:104B400054087A540803542B31543300542B2A54FC
:104B5000330054087B540804542C2D543400542C36
:104B60002654340054087C540805542D185435003C
:104B7000542D1154350054087D542E2D54360054B4
:104B80002F2D54370061112B540800542841543004
:104B900000542846543000540878540801542946DB
:104BA000543100542941543100540879542A315465
:104BB0003200542B2A543300542C26543400542DE4
:104BC00011543500542E2D543600542F2D543700D7
:104BD0006188155408005428465430005428445421
:104BE00030005408785408015429415431005429A4
:104BF00044543100540879542A31543200542B2A39
:104C0000543300542C26543400542D115435005480
:104C10002E2D543600542F2D54370061881554081A
:104C2000005428445430005428415430005408782B
:104C30005408015429445431005429465431005435
:104C40000879542A31543200542B2A543300542CFE
:104C500026543400542D11543500542E2D54360052
:104C6000542F2D54370061112B54080054284154FF
:104C70003000542846543000540878540801542910
:104C80004654310054294A543100540879542A3189
:104C9000543200542B2A543300542C2654340054DC
:104CA0002D11543500542E2D543600542F2D5437C9
:104CB0000061112B540800542846543000542848F1
:104CC00054300054087854080154294A543100548F
:104CD0002948543100540879540802542A31543276
:104CE00000542A3854320054087A540803542B2AAA
:104CF000543300542B3454330054087B5408045468
:104D00002C26543400542C3154340054087C54085C
:104D100005542D11543500542D1854350054087D78
:104D2000542E2D543600542F2D54370061112B541E
:104D30000800542848543000542841543000540886
:104D40007854080154294854310054294D543100F5
:104D5000540879542A38543200542B3454330054B4
:104D60002C31543400542D18543500542E2D543603
:104D700000542F2D543700618815540800542841E1
:104D800054300054284054300054087854080154DA
:104D9000294D54310054294A543100540879542A79
:104DA00038543200542B34543300542C31543400D2
:104DB000542D18543500542E2D543600542F2D5494
:104DC0003700618815540800542840543000542896
:104DD0004154300054087854080154294A54310091
:104DE000542948543100540879542A385432005414
:104DF0002B34543300542C31543400542D18543572
:104E000000542E2D543600542F2D54370061112B91
:104E10005408005428415430005428415430005460
:104E20000878540801542948543100542946543113
:104E300000540879542A38543200542B3454330027
:104E4000542C31543400542D18543500542E2D5404
:104E50003600542F2D54370061112B54080054286C
:104E6000415430005428415430005408785408010B
:104E7000542946543100542944543100540879547B
:104E80000802542A38543200542A3A543200540842
:104E90007A540803542B34543300542B34543300C5
:104EA00054087B540804542C31543400542C30548E
:104EB000340054087C540805542D18543500542DE2
:104EC0001A54350054087D542E2D543600542F2D7D
:104ED00054370061112B54284154300054080154B8
:104EE000294454310054294A543100540879542A31
:104EF0003A543200542B34543300542C3054340080
:104F0000542D1A543500542E2D543600542F2D5440
:104F10003700618815542841543000540801542941
:104F20004A543100542948543100540879542A3ADB
:104F3000543200542B34543300542C305434005425
:104F40002D1A543500542E2D543600542F2D54371D
:104F500000618815542841543000540801542948F0
:104F6000543100542946543100540879542A3A5493
:104F70003200542B34543300542C30543400542D0C
:104F80001A543500542E2D543600542F2D5437000A
:104F900061112B54080054284154300054284054C7
:104FA00030005408785408015429465431005429DB
:104FB00044543100540879542A3A543200542B3462
:104FC000543300542C30543400542D1A54350054AA
:104FD0002E2D543600542F2D54370061112B5408B8
:104FE000005428405430005428415430005408786C
:104FF0005408015429445431005429415431005477
:105000000879540802542A3A543200542A36543249
:105010000054087A540803542B34543300542B3171
:1050200054330054087B540804542C305434005436
:105030002C2A54340054087C540805542D1A543535
:1050400000542D2154350054087D542E2D54360023
:10505000542F2D54370061112B54284154300054E3
:105060000801542941543100542941543100540855
:1050700079542A36543200542B31543300542C2A9C
:10508000543400542D21543500542E2D54360054E0
:105090002F2D54370061881554284154300054088E
:1050A00001542941543100542940543100540879A5
:1050B000542A36543200542B31543300542C2A5481
:1050C0003400542D21543500542E2D543600542FC5
:1050D0002D5437006188155408005428415430007D
:1050E000542851543000540878540801542940542D
:1050F0003100542941543100540879542A3654322D
:1051000000542B31543300542C2A543400542D2194
:10511000543500542E2D543600542F2D5437006131
:10512000112B542851543000540801542941543152
:1051300000542946543100540879542A3654320018
:10514000542B31543300542C2A543400542D215400
:105150003500542E2D543600542F2D543700611134
:105160002B54080054285154300054285054300017
:1051700054087854080154294654310054294A549B
:105180003100540879540802542A36543200542A03
:105190003A54320054087A540803542B31543300E3
:1051A000542B3454330054087B540804542C2A5490
:1051B0003400542C3054340054087C540805542DC9
:1051C00021543500542D1A54350054087D542E2D89
:1051D000543600542F2D54370061112B542850544D
:1051E000300054080154294A54310054293A5431AA
:1051F00000540879542A3A543200542B3454330062
:10520000542C30543400542D1A543500542E2D543F
:105210003600542F2D5437006188155428505430CF
:105220000054080154293A54310054293D543100A6
:10523000540879542A3A543200542B3454330054CD
:105240002C30543400542D1A543500542E2D54361D
:1052500000542F2D543700618815542850543000C5
:1052600054080154293D543100542940543100540C
:105270000879542A3A543200542B34543300542CB5
:1052800030543400542D1A543500542E2D54360009
:10529000542F2D54370061112B5428505430005492
:1052A000080154294054310054293A54310054081B
:1052B00079542A3A543200542B34543300542C304D
:1052C000543400542D1A543500542E2D54360054A5
:1052D0002F2D54370061112B54080054285054309E
:1052E0000054284D54300054087854080154293A89
:1052F000543100542946543100540879540802545A
:105300002A3A543200542A3D54320054087A540840
:1053100003542B34543300542B3654330054087B3D
:10532000540804542C30543400542C315434005458
:10533000087C540805542D1A543500542D1D54353D
:105340000054087D542E2D543600542F2D54370010
:1053500061112B54284D54300054080154294654EF
:105360003100542941543100540879542A3D5432B3
:1053700000542B36543300542C31543400542D1D1A
:10538000543500542E2D543600542F2D54370061BF
:10539000881554284D543000540801542941543183
:1053A00000542944543100540879542A3D543200A1
:1053B000542B36543300542C31543400542D1D5486
:1053C0003500542E2D543600542F2D54370061884B
:1053D0001554284D543000540801542944543100C8
:1053E000542946543100540879542A3D543200540B
:1053F0002B36543300542C31543400542D1D543565
:1054000000542E2D543600542F2D54370061112B8B
:1054100054284D5430005408015429465431005446
:105420002941543100540879542A3D543200542BF8
:1054300036543300542C31543400542D1D5435004F
:10544000542E2D543600542F2D54370061112B54F7
:10545000080054284D54300054284A543000540851
:1054600078540801542941543100542946543100DC
:10547000540879540802542A3D543200542A3654B0
:10548000320054087A540803542B36543300542BFA
:105490003154330054087B540804542C31543400E4
:1054A000542C2A54340054087C540805542D1D549F
:1054B0003500542D1654350054087D542E2D543685
:1054C00000542F2D54370061112B54284A543000BA
:1054D000540801542946543100542946543100548B
:1054E0000879542A36543200542B31543300542C4A
:1054F0002A543400542D16543500542E2D543600A1
:10550000542F2D54370061881554284A54300054C4
:105510000801542946543100542944543100540898
:1055200079542A36543200542B31543300542C2AE7
:10553000543400542D16543500542E2D5436005436
:105540002F2D54370061881554284A5430005408D0
:1055500001542944543100542941543100540879EC
:10556000542A36543200542B31543300542C2A54CC
:105570003400542D16543500542E2D543600542F1B
:105580002D54370061112B54284A5430005408011F
:10559000542941543100542940543100540879545D
:1055A0002A36543200542B31543300542C2A5434AC
:1055B00000542D16543500542E2D543600542F2DE2
:1055C00054370061112B54080054284A54300054B9
:1055D000284154300054087854080154294054316B
:1055E0000054293D543100540879540802542A3695
:1055F000543200542A3854320054087A5408035460
:105600002B31543300542B3154330054087B54084D
:1056100004542C2A543400542C2D54340054087C47
:10562000540805542D16543500542D185435005483
:10563000087D542E2D543600542F2D5437006111FF
:105640002B54284154300054080154293D54310052
:1056500054293D543100540879542A3854320054A6
:105660002B31543300542C2D543400542D18543500
:1056700000542E2D543600542F2D543700618815B8
:1056800054284154300054080154293D54310054E9
:10569000293A543100540879542A38543200542B92
:1056A00031543300542C2D543400542D18543500EB
:1056B000542E2D543600542F2D5437006188155424
:1056C000284154300054080154293A5431005429D7
:1056D0003D543100540879542A38543200542B3147
:1056E000543300542C2D543400542D185435005488
:1056F0002E2D543600542F2D54370061112B540891
:105700000054284154300054284454300054087840
:1057100054080154293D5431005429405431005457
:105720000879542A38543200542B31543300542C05
:105730002D543400542D18543500542E2D54360059
:10574000542F2D54370061112B5408005428445411
:105750003000542846543000540878540801542925
:1057600040543100542941543100540879540802FE
:10577000542A38543200542A3154320054087A548E
:105780000803542B31543300542B2A54330054084B
:105790007B540804542C2D543400542C26543400CB
:1057A00054087C540805542D18543500542D1154B8
:1057B000350054087D542E2D543600542F2D543767
:1057C0000061112B542846543000540801542941DB
:1057D000543100542946543100540879542A315424
:1057E0003200542B2A543300542C26543400542DA8
:1057F00011543500542E2D543600542F2D5437009B
:1058000061881554284654300054080154294654E0
:105810003100542944543100540879542A31543207
:1058200000542B2A543300542C26543400542D1188
:10583000543500542E2D543600542F2D543700610A
:1058400088155428465430005408015429445431D2
:1058500000542941543100540879542A31543200FB
:10586000542B2A543300542C26543400542D1154F4
:105870003500542E2D543600542F2D54370061110D
:105880002B54284654300054080154294154310007
:10589000542946543100540879542A315432005462
:1058A0002B2A543300542C26543400542D115435D3
:1058B00000542E2D543600542F2D54370061112BD7
:1058C00054080054284654300054284D5430005495
:1058D0000878540801542946543100542948543159
:1058E00000540879540802542A31543200542A389A
:1058F00054320054087A540803542B2A5433005469
:105900002B3454330054087B540804542C2654344C
:1059100000542C3154340054087C540805542D1183
:10592000543500542D1854350054087D542E2D54F0
:105930003600542F2D54370061112B54284D54300C
:10594000005408015429485431005429415431006D
:10595000540879542A38543200542B3454330054A8
:105960002C31543400542D18543500542E2D5436F7
:1059700000542F2D54370061881554284D543000A1
:1059800054080154294154310054294054310054E1
:105990000879542A38543200542B34543300542C90
:1059A00031543400542D18543500542E2D543600E3
:1059B000542F2D54370061881554284D543000540D
:1059C00008015429405431005429415431005408ED
:1059D00079542A38543200542B34543300542C3127
:1059E000543400542D18543500542E2D5436005480
:1059F0002F2D54370061112B54284D54300054087A
:105A0000015429415431005429415431005408793A
:105A1000542A38543200542B34543300542C31540B
:105A20003400542D18543500542E2D543600542F64
:105A30002D54370061112B54080054284D54300068
:105A400054284454300054087854080154294154CF
:105A50003100542941543100540879540802542A21
:105A600038543200542A3A54320054087A54080305
:105A7000542B34543300542B3454330054087B5487
:105A80000804542C31543400542C3054340054083D
:105A90007C540805542D18543500542D1A543500E3
:105AA00054087D542E2D543600542F2D5437006148
:105AB000338154080054284454300054284454304E
:105AC00000540878540801542941543100542940A5
:105AD000543100540879542A3A543200542B345427
